{
    "contractName": "StrategyVHMaximizer",
    "abi": [
        {
            "inputs": [
                {
                    "internalType": "contract IERC20",
                    "name": "_wantToken",
                    "type": "address"
                },
                {
                    "internalType": "address",
                    "name": "_vaultHealerAddress",
                    "type": "address"
                },
                {
                    "internalType": "address",
                    "name": "_masterchefAddress",
                    "type": "address"
                },
                {
                    "internalType": "address",
                    "name": "_tacticAddress",
                    "type": "address"
                },
                {
                    "internalType": "uint256",
                    "name": "_pid",
                    "type": "uint256"
                },
                {
                    "components": [
                        {
                            "internalType": "contract IUniRouter02",
                            "name": "router",
                            "type": "address"
                        },
                        {
                            "internalType": "uint16",
                            "name": "slippageFactor",
                            "type": "uint16"
                        },
                        {
                            "internalType": "uint16",
                            "name": "tolerance",
                            "type": "uint16"
                        },
                        {
                            "internalType": "uint64",
                            "name": "minBlocksBetweenEarns",
                            "type": "uint64"
                        },
                        {
                            "internalType": "uint88",
                            "name": "dust",
                            "type": "uint88"
                        },
                        {
                            "internalType": "bool",
                            "name": "feeOnTransfer",
                            "type": "bool"
                        },
                        {
                            "internalType": "contract Magnetite",
                            "name": "magnetite",
                            "type": "address"
                        }
                    ],
                    "internalType": "struct VaultSettings",
                    "name": "_settings",
                    "type": "tuple"
                },
                {
                    "internalType": "contract IERC20[]",
                    "name": "_earned",
                    "type": "address[]"
                },
                {
                    "internalType": "address",
                    "name": "_crystlCompounder",
                    "type": "address"
                }
            ],
            "stateMutability": "nonpayable",
            "type": "constructor"
        },
        {
            "anonymous": false,
            "inputs": [
                {
                    "components": [
                        {
                            "components": [
                                {
                                    "internalType": "contract IERC20",
                                    "name": "token",
                                    "type": "address"
                                },
                                {
                                    "internalType": "address",
                                    "name": "receiver",
                                    "type": "address"
                                },
                                {
                                    "internalType": "uint16",
                                    "name": "rate",
                                    "type": "uint16"
                                }
                            ],
                            "internalType": "struct VaultFee",
                            "name": "withdraw",
                            "type": "tuple"
                        },
                        {
                            "components": [
                                {
                                    "internalType": "contract IERC20",
                                    "name": "token",
                                    "type": "address"
                                },
                                {
                                    "internalType": "address",
                                    "name": "receiver",
                                    "type": "address"
                                },
                                {
                                    "internalType": "uint16",
                                    "name": "rate",
                                    "type": "uint16"
                                }
                            ],
                            "internalType": "struct VaultFee",
                            "name": "earn",
                            "type": "tuple"
                        },
                        {
                            "components": [
                                {
                                    "internalType": "contract IERC20",
                                    "name": "token",
                                    "type": "address"
                                },
                                {
                                    "internalType": "address",
                                    "name": "receiver",
                                    "type": "address"
                                },
                                {
                                    "internalType": "uint16",
                                    "name": "rate",
                                    "type": "uint16"
                                }
                            ],
                            "internalType": "struct VaultFee",
                            "name": "reward",
                            "type": "tuple"
                        },
                        {
                            "components": [
                                {
                                    "internalType": "contract IERC20",
                                    "name": "token",
                                    "type": "address"
                                },
                                {
                                    "internalType": "address",
                                    "name": "receiver",
                                    "type": "address"
                                },
                                {
                                    "internalType": "uint16",
                                    "name": "rate",
                                    "type": "uint16"
                                }
                            ],
                            "internalType": "struct VaultFee",
                            "name": "burn",
                            "type": "tuple"
                        }
                    ],
                    "indexed": false,
                    "internalType": "struct VaultFees",
                    "name": "_fees",
                    "type": "tuple"
                }
            ],
            "name": "SetFees",
            "type": "event"
        },
        {
            "anonymous": false,
            "inputs": [
                {
                    "components": [
                        {
                            "internalType": "contract IUniRouter02",
                            "name": "router",
                            "type": "address"
                        },
                        {
                            "internalType": "uint16",
                            "name": "slippageFactor",
                            "type": "uint16"
                        },
                        {
                            "internalType": "uint16",
                            "name": "tolerance",
                            "type": "uint16"
                        },
                        {
                            "internalType": "uint64",
                            "name": "minBlocksBetweenEarns",
                            "type": "uint64"
                        },
                        {
                            "internalType": "uint88",
                            "name": "dust",
                            "type": "uint88"
                        },
                        {
                            "internalType": "bool",
                            "name": "feeOnTransfer",
                            "type": "bool"
                        },
                        {
                            "internalType": "contract Magnetite",
                            "name": "magnetite",
                            "type": "address"
                        }
                    ],
                    "indexed": false,
                    "internalType": "struct VaultSettings",
                    "name": "_settings",
                    "type": "tuple"
                }
            ],
            "name": "SetSettings",
            "type": "event"
        },
        {
            "inputs": [],
            "name": "CheckIsMaximizer",
            "outputs": [
                {
                    "internalType": "bool",
                    "name": "",
                    "type": "bool"
                }
            ],
            "stateMutability": "view",
            "type": "function"
        },
        {
            "inputs": [
                {
                    "internalType": "address",
                    "name": "_from",
                    "type": "address"
                },
                {
                    "internalType": "uint256",
                    "name": "_wantAmt",
                    "type": "uint256"
                }
            ],
            "name": "UpdatePoolAndRewarddebtOnDeposit",
            "outputs": [],
            "stateMutability": "nonpayable",
            "type": "function"
        },
        {
            "inputs": [
                {
                    "internalType": "address",
                    "name": "_from",
                    "type": "address"
                },
                {
                    "internalType": "uint256",
                    "name": "_wantAmt",
                    "type": "uint256"
                },
                {
                    "internalType": "uint256",
                    "name": "_userWant",
                    "type": "uint256"
                }
            ],
            "name": "UpdatePoolAndWithdrawCrystlOnWithdrawal",
            "outputs": [],
            "stateMutability": "nonpayable",
            "type": "function"
        },
        {
            "inputs": [],
            "name": "accRewardTokensPerShare",
            "outputs": [
                {
                    "internalType": "uint256",
                    "name": "",
                    "type": "uint256"
                }
            ],
            "stateMutability": "view",
            "type": "function"
        },
        {
            "inputs": [],
            "name": "burnedAmount",
            "outputs": [
                {
                    "internalType": "uint256",
                    "name": "",
                    "type": "uint256"
                }
            ],
            "stateMutability": "view",
            "type": "function"
        },
        {
            "inputs": [],
            "name": "buyBackRate",
            "outputs": [
                {
                    "internalType": "uint256",
                    "name": "",
                    "type": "uint256"
                }
            ],
            "stateMutability": "view",
            "type": "function"
        },
        {
            "inputs": [],
            "name": "crystlCompounder",
            "outputs": [
                {
                    "internalType": "contract IStrategy",
                    "name": "",
                    "type": "address"
                }
            ],
            "stateMutability": "view",
            "type": "function"
        },
        {
            "inputs": [
                {
                    "internalType": "address",
                    "name": "_from",
                    "type": "address"
                },
                {
                    "internalType": "address",
                    "name": "",
                    "type": "address"
                },
                {
                    "internalType": "uint256",
                    "name": "_wantAmt",
                    "type": "uint256"
                },
                {
                    "internalType": "uint256",
                    "name": "_sharesTotal",
                    "type": "uint256"
                }
            ],
            "name": "deposit",
            "outputs": [
                {
                    "internalType": "uint256",
                    "name": "sharesAdded",
                    "type": "uint256"
                }
            ],
            "stateMutability": "nonpayable",
            "type": "function"
        },
        {
            "inputs": [
                {
                    "internalType": "address",
                    "name": "_to",
                    "type": "address"
                }
            ],
            "name": "earn",
            "outputs": [],
            "stateMutability": "nonpayable",
            "type": "function"
        },
        {
            "inputs": [
                {
                    "internalType": "uint256",
                    "name": "",
                    "type": "uint256"
                }
            ],
            "name": "earned",
            "outputs": [
                {
                    "internalType": "contract IERC20",
                    "name": "",
                    "type": "address"
                }
            ],
            "stateMutability": "view",
            "type": "function"
        },
        {
            "inputs": [
                {
                    "internalType": "address",
                    "name": "_user",
                    "type": "address"
                }
            ],
            "name": "getRewardDebt",
            "outputs": [
                {
                    "internalType": "uint256",
                    "name": "",
                    "type": "uint256"
                }
            ],
            "stateMutability": "view",
            "type": "function"
        },
        {
            "inputs": [
                {
                    "internalType": "address",
                    "name": "_user",
                    "type": "address"
                },
                {
                    "internalType": "uint256",
                    "name": "amount",
                    "type": "uint256"
                }
            ],
            "name": "increaseRewardDebt",
            "outputs": [],
            "stateMutability": "nonpayable",
            "type": "function"
        },
        {
            "inputs": [],
            "name": "isMaximizer",
            "outputs": [
                {
                    "internalType": "bool",
                    "name": "",
                    "type": "bool"
                }
            ],
            "stateMutability": "view",
            "type": "function"
        },
        {
            "inputs": [],
            "name": "lastEarnBlock",
            "outputs": [
                {
                    "internalType": "uint256",
                    "name": "",
                    "type": "uint256"
                }
            ],
            "stateMutability": "view",
            "type": "function"
        },
        {
            "inputs": [
                {
                    "internalType": "uint256",
                    "name": "",
                    "type": "uint256"
                }
            ],
            "name": "lpToken",
            "outputs": [
                {
                    "internalType": "contract IERC20",
                    "name": "",
                    "type": "address"
                }
            ],
            "stateMutability": "view",
            "type": "function"
        },
        {
            "inputs": [],
            "name": "masterchef",
            "outputs": [
                {
                    "internalType": "address",
                    "name": "",
                    "type": "address"
                }
            ],
            "stateMutability": "view",
            "type": "function"
        },
        {
            "inputs": [
                {
                    "internalType": "address",
                    "name": "",
                    "type": "address"
                },
                {
                    "internalType": "address",
                    "name": "",
                    "type": "address"
                },
                {
                    "internalType": "uint256[]",
                    "name": "",
                    "type": "uint256[]"
                },
                {
                    "internalType": "uint256[]",
                    "name": "",
                    "type": "uint256[]"
                },
                {
                    "internalType": "bytes",
                    "name": "",
                    "type": "bytes"
                }
            ],
            "name": "onERC1155BatchReceived",
            "outputs": [
                {
                    "internalType": "bytes4",
                    "name": "",
                    "type": "bytes4"
                }
            ],
            "stateMutability": "nonpayable",
            "type": "function"
        },
        {
            "inputs": [
                {
                    "internalType": "address",
                    "name": "",
                    "type": "address"
                },
                {
                    "internalType": "address",
                    "name": "",
                    "type": "address"
                },
                {
                    "internalType": "uint256",
                    "name": "",
                    "type": "uint256"
                },
                {
                    "internalType": "uint256",
                    "name": "",
                    "type": "uint256"
                },
                {
                    "internalType": "bytes",
                    "name": "",
                    "type": "bytes"
                }
            ],
            "name": "onERC1155Received",
            "outputs": [
                {
                    "internalType": "bytes4",
                    "name": "",
                    "type": "bytes4"
                }
            ],
            "stateMutability": "nonpayable",
            "type": "function"
        },
        {
            "inputs": [],
            "name": "panic",
            "outputs": [],
            "stateMutability": "nonpayable",
            "type": "function"
        },
        {
            "inputs": [],
            "name": "panicLockExpiry",
            "outputs": [
                {
                    "internalType": "uint256",
                    "name": "",
                    "type": "uint256"
                }
            ],
            "stateMutability": "view",
            "type": "function"
        },
        {
            "inputs": [],
            "name": "pause",
            "outputs": [],
            "stateMutability": "nonpayable",
            "type": "function"
        },
        {
            "inputs": [],
            "name": "paused",
            "outputs": [
                {
                    "internalType": "bool",
                    "name": "",
                    "type": "bool"
                }
            ],
            "stateMutability": "view",
            "type": "function"
        },
        {
            "inputs": [],
            "name": "pid",
            "outputs": [
                {
                    "internalType": "uint256",
                    "name": "",
                    "type": "uint256"
                }
            ],
            "stateMutability": "view",
            "type": "function"
        },
        {
            "inputs": [
                {
                    "internalType": "address",
                    "name": "",
                    "type": "address"
                }
            ],
            "name": "rewardDebt",
            "outputs": [
                {
                    "internalType": "uint256",
                    "name": "",
                    "type": "uint256"
                }
            ],
            "stateMutability": "view",
            "type": "function"
        },
        {
            "inputs": [
                {
                    "components": [
                        {
                            "components": [
                                {
                                    "internalType": "contract IERC20",
                                    "name": "token",
                                    "type": "address"
                                },
                                {
                                    "internalType": "address",
                                    "name": "receiver",
                                    "type": "address"
                                },
                                {
                                    "internalType": "uint16",
                                    "name": "rate",
                                    "type": "uint16"
                                }
                            ],
                            "internalType": "struct VaultFee",
                            "name": "withdraw",
                            "type": "tuple"
                        },
                        {
                            "components": [
                                {
                                    "internalType": "contract IERC20",
                                    "name": "token",
                                    "type": "address"
                                },
                                {
                                    "internalType": "address",
                                    "name": "receiver",
                                    "type": "address"
                                },
                                {
                                    "internalType": "uint16",
                                    "name": "rate",
                                    "type": "uint16"
                                }
                            ],
                            "internalType": "struct VaultFee",
                            "name": "earn",
                            "type": "tuple"
                        },
                        {
                            "components": [
                                {
                                    "internalType": "contract IERC20",
                                    "name": "token",
                                    "type": "address"
                                },
                                {
                                    "internalType": "address",
                                    "name": "receiver",
                                    "type": "address"
                                },
                                {
                                    "internalType": "uint16",
                                    "name": "rate",
                                    "type": "uint16"
                                }
                            ],
                            "internalType": "struct VaultFee",
                            "name": "reward",
                            "type": "tuple"
                        },
                        {
                            "components": [
                                {
                                    "internalType": "contract IERC20",
                                    "name": "token",
                                    "type": "address"
                                },
                                {
                                    "internalType": "address",
                                    "name": "receiver",
                                    "type": "address"
                                },
                                {
                                    "internalType": "uint16",
                                    "name": "rate",
                                    "type": "uint16"
                                }
                            ],
                            "internalType": "struct VaultFee",
                            "name": "burn",
                            "type": "tuple"
                        }
                    ],
                    "internalType": "struct VaultFees",
                    "name": "_fees",
                    "type": "tuple"
                }
            ],
            "name": "setFees",
            "outputs": [],
            "stateMutability": "nonpayable",
            "type": "function"
        },
        {
            "inputs": [
                {
                    "components": [
                        {
                            "internalType": "contract IUniRouter02",
                            "name": "router",
                            "type": "address"
                        },
                        {
                            "internalType": "uint16",
                            "name": "slippageFactor",
                            "type": "uint16"
                        },
                        {
                            "internalType": "uint16",
                            "name": "tolerance",
                            "type": "uint16"
                        },
                        {
                            "internalType": "uint64",
                            "name": "minBlocksBetweenEarns",
                            "type": "uint64"
                        },
                        {
                            "internalType": "uint88",
                            "name": "dust",
                            "type": "uint88"
                        },
                        {
                            "internalType": "bool",
                            "name": "feeOnTransfer",
                            "type": "bool"
                        },
                        {
                            "internalType": "contract Magnetite",
                            "name": "magnetite",
                            "type": "address"
                        }
                    ],
                    "internalType": "struct VaultSettings",
                    "name": "_settings",
                    "type": "tuple"
                }
            ],
            "name": "setSettings",
            "outputs": [],
            "stateMutability": "nonpayable",
            "type": "function"
        },
        {
            "inputs": [
                {
                    "internalType": "address",
                    "name": "_stakingPoolAddress",
                    "type": "address"
                }
            ],
            "name": "setStakingPoolAddress",
            "outputs": [],
            "stateMutability": "nonpayable",
            "type": "function"
        },
        {
            "inputs": [],
            "name": "settings",
            "outputs": [
                {
                    "internalType": "contract IUniRouter02",
                    "name": "router",
                    "type": "address"
                },
                {
                    "internalType": "uint16",
                    "name": "slippageFactor",
                    "type": "uint16"
                },
                {
                    "internalType": "uint16",
                    "name": "tolerance",
                    "type": "uint16"
                },
                {
                    "internalType": "uint64",
                    "name": "minBlocksBetweenEarns",
                    "type": "uint64"
                },
                {
                    "internalType": "uint88",
                    "name": "dust",
                    "type": "uint88"
                },
                {
                    "internalType": "bool",
                    "name": "feeOnTransfer",
                    "type": "bool"
                },
                {
                    "internalType": "contract Magnetite",
                    "name": "magnetite",
                    "type": "address"
                }
            ],
            "stateMutability": "view",
            "type": "function"
        },
        {
            "inputs": [],
            "name": "sharesTotal",
            "outputs": [
                {
                    "internalType": "uint256",
                    "name": "",
                    "type": "uint256"
                }
            ],
            "stateMutability": "view",
            "type": "function"
        },
        {
            "inputs": [],
            "name": "stakingPoolAddress",
            "outputs": [
                {
                    "internalType": "address",
                    "name": "",
                    "type": "address"
                }
            ],
            "stateMutability": "view",
            "type": "function"
        },
        {
            "inputs": [
                {
                    "internalType": "bytes4",
                    "name": "interfaceId",
                    "type": "bytes4"
                }
            ],
            "name": "supportsInterface",
            "outputs": [
                {
                    "internalType": "bool",
                    "name": "",
                    "type": "bool"
                }
            ],
            "stateMutability": "view",
            "type": "function"
        },
        {
            "inputs": [],
            "name": "tactic",
            "outputs": [
                {
                    "internalType": "contract ITactic",
                    "name": "",
                    "type": "address"
                }
            ],
            "stateMutability": "view",
            "type": "function"
        },
        {
            "inputs": [],
            "name": "tolerance",
            "outputs": [
                {
                    "internalType": "uint256",
                    "name": "",
                    "type": "uint256"
                }
            ],
            "stateMutability": "view",
            "type": "function"
        },
        {
            "inputs": [],
            "name": "unpanic",
            "outputs": [],
            "stateMutability": "nonpayable",
            "type": "function"
        },
        {
            "inputs": [],
            "name": "unpause",
            "outputs": [],
            "stateMutability": "nonpayable",
            "type": "function"
        },
        {
            "inputs": [],
            "name": "vaultFees",
            "outputs": [
                {
                    "components": [
                        {
                            "internalType": "contract IERC20",
                            "name": "token",
                            "type": "address"
                        },
                        {
                            "internalType": "address",
                            "name": "receiver",
                            "type": "address"
                        },
                        {
                            "internalType": "uint16",
                            "name": "rate",
                            "type": "uint16"
                        }
                    ],
                    "internalType": "struct VaultFee",
                    "name": "withdraw",
                    "type": "tuple"
                },
                {
                    "components": [
                        {
                            "internalType": "contract IERC20",
                            "name": "token",
                            "type": "address"
                        },
                        {
                            "internalType": "address",
                            "name": "receiver",
                            "type": "address"
                        },
                        {
                            "internalType": "uint16",
                            "name": "rate",
                            "type": "uint16"
                        }
                    ],
                    "internalType": "struct VaultFee",
                    "name": "earn",
                    "type": "tuple"
                },
                {
                    "components": [
                        {
                            "internalType": "contract IERC20",
                            "name": "token",
                            "type": "address"
                        },
                        {
                            "internalType": "address",
                            "name": "receiver",
                            "type": "address"
                        },
                        {
                            "internalType": "uint16",
                            "name": "rate",
                            "type": "uint16"
                        }
                    ],
                    "internalType": "struct VaultFee",
                    "name": "reward",
                    "type": "tuple"
                },
                {
                    "components": [
                        {
                            "internalType": "contract IERC20",
                            "name": "token",
                            "type": "address"
                        },
                        {
                            "internalType": "address",
                            "name": "receiver",
                            "type": "address"
                        },
                        {
                            "internalType": "uint16",
                            "name": "rate",
                            "type": "uint16"
                        }
                    ],
                    "internalType": "struct VaultFee",
                    "name": "burn",
                    "type": "tuple"
                }
            ],
            "stateMutability": "view",
            "type": "function"
        },
        {
            "inputs": [],
            "name": "vaultHealer",
            "outputs": [
                {
                    "internalType": "contract VaultHealer",
                    "name": "",
                    "type": "address"
                }
            ],
            "stateMutability": "view",
            "type": "function"
        },
        {
            "inputs": [],
            "name": "vaultSharesTotal",
            "outputs": [
                {
                    "internalType": "uint256",
                    "name": "",
                    "type": "uint256"
                }
            ],
            "stateMutability": "view",
            "type": "function"
        },
        {
            "inputs": [],
            "name": "vaultStats",
            "outputs": [
                {
                    "internalType": "uint128",
                    "name": "totalEarned",
                    "type": "uint128"
                },
                {
                    "internalType": "uint128",
                    "name": "totalBurned",
                    "type": "uint128"
                }
            ],
            "stateMutability": "view",
            "type": "function"
        },
        {
            "inputs": [],
            "name": "wantLockedTotal",
            "outputs": [
                {
                    "internalType": "uint256",
                    "name": "",
                    "type": "uint256"
                }
            ],
            "stateMutability": "view",
            "type": "function"
        },
        {
            "inputs": [],
            "name": "wantToken",
            "outputs": [
                {
                    "internalType": "contract IERC20",
                    "name": "",
                    "type": "address"
                }
            ],
            "stateMutability": "view",
            "type": "function"
        },
        {
            "inputs": [
                {
                    "internalType": "address",
                    "name": "_from",
                    "type": "address"
                },
                {
                    "internalType": "address",
                    "name": "",
                    "type": "address"
                },
                {
                    "internalType": "uint256",
                    "name": "_wantAmt",
                    "type": "uint256"
                },
                {
                    "internalType": "uint256",
                    "name": "_userShares",
                    "type": "uint256"
                },
                {
                    "internalType": "uint256",
                    "name": "_sharesTotal",
                    "type": "uint256"
                }
            ],
            "name": "withdraw",
            "outputs": [
                {
                    "internalType": "uint256",
                    "name": "sharesRemoved",
                    "type": "uint256"
                },
                {
                    "internalType": "uint256",
                    "name": "wantAmt",
                    "type": "uint256"
                }
            ],
            "stateMutability": "nonpayable",
            "type": "function"
        }
    ],
    "bytecode": "610160604052436002553480156200001657600080fd5b50604051620048a6380380620048a68339810160408190526200003991620006ae565b8688838562000053816200045660201b620018921760201c565b805160008054602084015160408086015160608701516001600160401b0316600160c01b026001600160c01b0361ffff928316600160b01b02166001600160b01b0392909416600160a01b026001600160b01b03199095166001600160a01b03978816179490941716919091179190911790915560808301516001805460a086015160c08701519095166c01000000000000000000000000026001600160601b039515156b010000000000000000000000026001600160601b03199092166001600160581b0390941693909317179390931617909155517fc2c7ac08416765095e5e7b6fc1fb40fbb89d6d8261453c24cae5bc89748b2b4d90620001c890839081516001600160a01b03908116825260208084015161ffff90811691840191909152604080850151909116908301526060808401516001600160401b0316908301526080808401516001600160581b03169083015260a08381015115159083015260c092830151169181019190915260e00190565b60405180910390a1506001600160a01b03821660805260005b81518110801562000221575060006001600160a01b03168282815181106200020d576200020d6200081a565b60200260200101516001600160a01b031614155b156200028e578181815181106200023c576200023c6200081a565b6020026020010151600482600881106200025a576200025a6200081a565b0180546001600160a01b0319166001600160a01b039290921691909117905580620002858162000830565b915050620001e1565b8060a081815250506000836001600160a01b0316630dfe16816040518163ffffffff1660e01b8152600401602060405180830381865afa925050508015620002f5575060408051601f3d908101601f19168201909252620002f2918101906200085a565b60015b6200031e5750600c80546001600160a01b0319166001600160a01b0385161790556001620003d6565b80600c60000160006101000a8154816001600160a01b0302191690836001600160a01b03160217905550846001600160a01b031663d21220a76040518163ffffffff1660e01b8152600401602060405180830381865afa15801562000387573d6000803e3d6000fd5b505050506040513d601f19601f82011682018060405250810190620003ad91906200085a565b600c60010180546001600160a01b0319166001600160a01b039290921691909117905550600290505b60c0525050506001600160a01b0390811660e0819052600180546001600160601b03166c010000000000000000000000009092029190911790559586166101005293851661012052505061014052601780546001600160a01b03191691909216179055505060188054600160a01b60ff60a01b1990911617905562000881565b80600001516001600160a01b031663c45a01556040518163ffffffff1660e01b8152600401602060405180830381865afa925050508015620004b7575060408051601f3d908101601f19168201909252620004b4918101906200085a565b60015b620004fa5760405162461bcd60e51b815260206004820152600e60248201526d24b73b30b634b2103937baba32b960911b60448201526064015b60405180910390fd5b506126de816020015161ffff161115620005575760405162461bcd60e51b815260206004820152601860248201527f5f736c697070616765466163746f7220746f6f206869676800000000000000006044820152606401620004f1565b50565b6001600160a01b03811681146200055757600080fd5b80516200057d816200055a565b919050565b634e487b7160e01b600052604160045260246000fd5b60405160e081016001600160401b0381118282101715620005bd57620005bd62000582565b60405290565b805161ffff811681146200057d57600080fd5b80516001600160581b03811681146200057d57600080fd5b805180151581146200057d57600080fd5b600082601f8301126200061157600080fd5b815160206001600160401b038083111562000630576200063062000582565b8260051b604051601f19603f8301168101818110848211171562000658576200065862000582565b6040529384528581018301938381019250878511156200067757600080fd5b83870191505b84821015620006a357815162000693816200055a565b835291830191908301906200067d565b979650505050505050565b600080600080600080600080888a036101c0811215620006cd57600080fd5b8951620006da816200055a565b60208b0151909950620006ed816200055a565b60408b015190985062000700816200055a565b60608b015190975062000713816200055a565b60808b0151909650945060e0609f19820112156200073057600080fd5b506200073b62000598565b60a08a01516200074b816200055a565b81526200075b60c08b01620005c3565b60208201526200076e60e08b01620005c3565b60408201526101008a01516001600160401b0380821682146200079057600080fd5b816060840152620007a56101208d01620005d6565b6080840152620007b96101408d01620005ee565b60a0840152620007cd6101608d0162000570565b60c08401526101808c015192955080831115620007e957600080fd5b5050620007f98b828c01620005ff565b9250506200080b6101a08a0162000570565b90509295985092959890939650565b634e487b7160e01b600052603260045260246000fd5b60006000198214156200085357634e487b7160e01b600052601160045260246000fd5b5060010190565b6000602082840312156200086d57600080fd5b81516200087a816200055a565b9392505050565b60805160a05160c05160e051610100516101205161014051613eb5620009f1600039600081816107170152818161081b01528181611e9101528181611fdf015281816122ec0152612cb40152600081816102cb0152818161084401528181611f1c015281816120650152818161236d0152612d39015260008181610770015281816107f301528181611e6001528181611fae015281816122bb01528181612c580152612c83015260008181610564015281816108c40152818161098001528181610a7b01528181610b2001528181610b9401528181610bcd01528181610c7201528181610e7f015281816111e50152818161125a015281816112ff01528181611353015281816115330152818161157c01528181611621015281816116d4015281816117790152818161184901528181611bc20152611c0401526000505060006119e701526000818161060c0152818161151101528181611a9701528181611e230152612c360152613eb56000f3fe608060405234801561001057600080fd5b506004361061025e5760003560e01c80636ff4ab8a11610146578063c0c5356a116100c3578063e06174e411610087578063e06174e414610654578063f106845414610712578063f23a6e6114610739578063f75c1d9e14610758578063fb1db2781461076b578063fdb5fefc1461079257600080fd5b8063c0c5356a146105e2578063c621fbc3146105f5578063d23e048014610607578063dce52dfa1461062e578063dfdce1641461064157600080fd5b80638456cb591161010a5780638456cb591461038657806396ae71f0146105865780639845db2f1461059a578063b9bafd93146105a3578063bc197c81146105b657600080fd5b80636ff4ab8a1461042757806372188e3f14610465578063762347591461052457806378ed5d1f1461054c5780637e2c5c191461055f57600080fd5b80633f4ba83a116101df57806350e15fdd116101a357806350e15fdd146103b957806352a49ba2146103d15780635873eb9b146103e45780635ad88a70146104045780635c975abb1461041757806365a5e30b1461041f57600080fd5b80633f4ba83a1461038657806342da4eb31461038e57806344a3955e146103965780634700d3051461039e5780634d6ed8c4146103a657600080fd5b80631c2b645b116102265780631c2b645b146102c65780631d47c6d914610305578063203d81c11461032e57806320e8c5651461036057806325b15a0c1461037357600080fd5b806301ffc9a71461026357806304c9d4901461028b5780630e442709146102a15780630fa4e01e146102aa578063178a8d07146102b3575b600080fd5b61027661027136600461308f565b6107a5565b60405190151581526020015b60405180910390f35b6102936107dc565b604051908152602001610282565b61029360195481565b61029360025481565b601554600160a01b900461ffff16610293565b6102ed7f000000000000000000000000000000000000000000000000000000000000000081565b6040516001600160a01b039091168152602001610282565b6102936103133660046130ce565b6001600160a01b03166000908152601b602052604090205490565b61035e61033c3660046130ce565b601880546001600160a01b0319166001600160a01b0392909216919091179055565b005b61029361036e3660046130eb565b6108b7565b6018546102ed906001600160a01b031681565b61035e610a79565b610293610b60565b610293610b7c565b61035e610bcb565b6102ed6103b4366004613131565b610d02565b601654600160801b90046001600160801b0316610293565b61035e6103df36600461314a565b610d22565b6102936103f23660046130ce565b601b6020526000908152604090205481565b61035e61041236600461317f565b611041565b6102766111cd565b61035e611258565b601654610445906001600160801b0380821691600160801b90041682565b604080516001600160801b03938416815292909116602083015201610282565b6040805160608082018352600e546001600160a01b039081168352600f5480821660208086019190915261ffff600160a01b928390048116868801528651808601885260105485168152601154808616828501528490048216818901528751808701895260125486168152601354808716828601528590048316818a01528851968701895260145486168752601554958616938701939093529290930490921694830194909452610514939184565b60405161028294939291906131d6565b61053761053236600461320d565b611345565b60408051928352602083019190915201610282565b6102ed61055a366004613131565b61156a565b6102ed7f000000000000000000000000000000000000000000000000000000000000000081565b60185461027690600160a01b900460ff1681565b61029360035481565b61035e6105b136600461325e565b61157a565b6105c96105c43660046133b9565b6116c0565b6040516001600160e01b03199091168152602001610282565b61035e6105f0366004613466565b6116d2565b601854600160a01b900460ff16610276565b6102ed7f000000000000000000000000000000000000000000000000000000000000000081565b600054600160b01b900461ffff16610293565b6017546102ed906001600160a01b031681565b6000546001546106b6916001600160a01b0380821692600160a01b830461ffff90811693600160b01b810490911692600160c01b9091046001600160401b0316916001600160581b03811691600160581b820460ff1691600160601b90041687565b604080516001600160a01b03988916815261ffff978816602082015295909616958501959095526001600160401b039290921660608401526001600160581b03166080830152151560a0820152911660c082015260e001610282565b6102937f000000000000000000000000000000000000000000000000000000000000000081565b6105c9610747366004613479565b63f23a6e6160e01b95945050505050565b61035e61076636600461317f565b61180d565b6102ed7f000000000000000000000000000000000000000000000000000000000000000081565b61035e6107a03660046130ce565b61183e565b60006001600160e01b03198216630271189760e51b14806107d657506301ffc9a760e01b6001600160e01b03198316145b92915050565b604051638c9c907b60e01b81526001600160a01b037f0000000000000000000000000000000000000000000000000000000000000000811660048301527f000000000000000000000000000000000000000000000000000000000000000060248301526000917f000000000000000000000000000000000000000000000000000000000000000090911690638c9c907b906044015b602060405180830381865afa15801561088e573d6000803e3d6000fd5b505050506040513d601f19601f820116820180604052508101906108b291906134e1565b905090565b6000336001600160a01b037f0000000000000000000000000000000000000000000000000000000000000000161461090a5760405162461bcd60e51b8152600401610901906134fa565b60405180910390fd5b61091385611988565b6001546001600160581b031683101561092e57506000610a71565b6000610938610b60565b6017549091506001600160a01b0316158015906109555750600081115b15610964576109648685611041565b6040516334c4023f60e11b8152306004820152602481018590527f00000000000000000000000000000000000000000000000000000000000000006001600160a01b031690636988047e90604401600060405180830381600087803b1580156109cc57600080fd5b505af11580156109e0573d6000803e3d6000fd5b505050506109ec611c75565b806109f5610b60565b6109ff9190613536565b91508215610a1557610a12828483611d56565b91505b6001546001600160581b03168211610a6f5760405162461bcd60e51b815260206004820152601d60248201527f6465706f7369743a206e6f2f64757374207368617265732061646465640000006044820152606401610901565b505b949350505050565b7f00000000000000000000000000000000000000000000000000000000000000006001600160a01b0316638da5cb5b6040518163ffffffff1660e01b8152600401602060405180830381865afa158015610ad7573d6000803e3d6000fd5b505050506040513d601f19601f82011682018060405250810190610afb919061354d565b6001600160a01b0316336001600160a01b03161480610b425750336001600160a01b037f000000000000000000000000000000000000000000000000000000000000000016145b610b5e5760405162461bcd60e51b81526004016109019061356a565b565b6000610b6a6107dc565b610b72611e0b565b6108b29190613588565b60405163270b84ad60e01b81523060048201526000907f00000000000000000000000000000000000000000000000000000000000000006001600160a01b03169063270b84ad90602401610871565b7f00000000000000000000000000000000000000000000000000000000000000006001600160a01b0316638da5cb5b6040518163ffffffff1660e01b8152600401602060405180830381865afa158015610c29573d6000803e3d6000fd5b505050506040513d601f19601f82011682018060405250810190610c4d919061354d565b6001600160a01b0316336001600160a01b03161480610c945750336001600160a01b037f000000000000000000000000000000000000000000000000000000000000000016145b610cb05760405162461bcd60e51b81526004016109019061356a565b4260035410610cfa5760405162461bcd60e51b815260206004820152601660248201527570616e6963206f6e636520706572203620686f75727360501b6044820152606401610901565b610b5e611e5a565b60048160088110610d1257600080fd5b01546001600160a01b0316905081565b610d2a610b60565b601a54601760009054906101000a90046001600160a01b03166001600160a01b03166342da4eb36040518163ffffffff1660e01b8152600401602060405180830381865afa158015610d80573d6000803e3d6000fd5b505050506040513d601f19601f82011682018060405250810190610da491906134e1565b610dae9190613536565b610dc5906c0c9f2c9cd04674edea400000006135a0565b610dcf91906135d5565b60196000828254610de09190613588565b90915550506001600160a01b0383166000908152601b60205260408120548290610e0b9085906135a0565b610e1591906135d5565b6c0c9f2c9cd04674edea4000000060195485610e3191906135a0565b610e3b91906135d5565b610e459190613536565b90507376bf0c28e604cc3fe9967c83b3c3f31c213cfe648115610fc057604051630441a3e760e41b815260036004820152602481018390527f00000000000000000000000000000000000000000000000000000000000000006001600160a01b03169063441a3e7090604401600060405180830381600087803b158015610ecb57600080fd5b505af1158015610edf573d6000803e3d6000fd5b50506040516370a0823160e01b8152306004820152610f6292508791506001600160a01b038416906370a0823190602401602060405180830381865afa158015610f2d573d6000803e3d6000fd5b505050506040513d601f19601f82011682018060405250810190610f5191906134e1565b6001600160a01b0384169190611f45565b6001600160a01b0385166000908152601b60205260409020548390610f889086906135a0565b610f9291906135d5565b6001600160a01b0386166000908152601b602052604081208054909190610fba908490613536565b90915550505b601760009054906101000a90046001600160a01b03166001600160a01b03166342da4eb36040518163ffffffff1660e01b8152600401602060405180830381865afa158015611013573d6000803e3d6000fd5b505050506040513d601f19601f8201168201806040525081019061103791906134e1565b601a555050505050565b6c0c9f2c9cd04674edea400000006019548261105d91906135a0565b61106791906135d5565b6001600160a01b0383166000908152601b60205260408120805490919061108f908490613588565b9091555061109d9050610b60565b601a54601760009054906101000a90046001600160a01b03166001600160a01b03166342da4eb36040518163ffffffff1660e01b8152600401602060405180830381865afa1580156110f3573d6000803e3d6000fd5b505050506040513d601f19601f8201168201806040525081019061111791906134e1565b6111219190613536565b611138906c0c9f2c9cd04674edea400000006135a0565b61114291906135d5565b601960008282546111539190613588565b9091555050601754604080516342da4eb360e01b815290516001600160a01b03909216916342da4eb3916004808201926020929091908290030181865afa1580156111a2573d6000803e3d6000fd5b505050506040513d601f19601f820116820180604052508101906111c691906134e1565b601a555050565b604051630b92054b60e21b81523060048201526000907f00000000000000000000000000000000000000000000000000000000000000006001600160a01b031690632e48152c90602401602060405180830381865afa158015611234573d6000803e3d6000fd5b505050506040513d601f19601f820116820180604052508101906108b29190613605565b7f00000000000000000000000000000000000000000000000000000000000000006001600160a01b0316638da5cb5b6040518163ffffffff1660e01b8152600401602060405180830381865afa1580156112b6573d6000803e3d6000fd5b505050506040513d601f19601f820116820180604052508101906112da919061354d565b6001600160a01b0316336001600160a01b031614806113215750336001600160a01b037f000000000000000000000000000000000000000000000000000000000000000016145b61133d5760405162461bcd60e51b81526004016109019061356a565b610b5e611c75565b600080336001600160a01b037f000000000000000000000000000000000000000000000000000000000000000016146113905760405162461bcd60e51b8152600401610901906134fa565b600061139a611e0b565b905060006113a66107dc565b6113b09083613588565b905060006113bf878388611d56565b90506113ca8a611988565b6017546001600160a01b0316158015906113e45750600082115b156113f4576113f48a8983610d22565b600154819061140c906001600160581b03168a613588565b1115611416578097505b8288111561143b5761143061142b848a613536565b611fa8565b611438611e0b565b92505b6000611445610b60565b90506000838210611457576000611461565b6114618285613536565b9050611477611470828c613588565b8986612092565b965088871115611485578896505b8061149188868b611d56565b61149b9190613536565b9950848a11156114a9578499505b60008a116115045760405162461bcd60e51b815260206004820152602260248201527f6e6f7468696e6720746f20776974686472617720616674657220736c69707061604482015261676560f01b6064820152608401610901565b6115586001600160a01b037f0000000000000000000000000000000000000000000000000000000000000000167f00000000000000000000000000000000000000000000000000000000000000008c6120d2565b50889450505050509550959350505050565b600c8160028110610d1257600080fd5b7f00000000000000000000000000000000000000000000000000000000000000006001600160a01b0316638da5cb5b6040518163ffffffff1660e01b8152600401602060405180830381865afa1580156115d8573d6000803e3d6000fd5b505050506040513d601f19601f820116820180604052508101906115fc919061354d565b6001600160a01b0316336001600160a01b031614806116435750336001600160a01b037f000000000000000000000000000000000000000000000000000000000000000016145b61165f5760405162461bcd60e51b81526004016109019061356a565b6116766116713683900383018361367d565b611892565b806000611683828261379a565b9050507fc2c7ac08416765095e5e7b6fc1fb40fbb89d6d8261453c24cae5bc89748b2b4d816040516116b591906138be565b60405180910390a150565b63bc197c8160e01b5b95945050505050565b7f00000000000000000000000000000000000000000000000000000000000000006001600160a01b0316638da5cb5b6040518163ffffffff1660e01b8152600401602060405180830381865afa158015611730573d6000803e3d6000fd5b505050506040513d601f19601f82011682018060405250810190611754919061354d565b6001600160a01b0316336001600160a01b0316148061179b5750336001600160a01b037f000000000000000000000000000000000000000000000000000000000000000016145b6117b75760405162461bcd60e51b81526004016109019061356a565b6117ce6117c9368390038301836139e9565b61218a565b80600e6117db8282613ab6565b9050507f9db956569328ca3023537c325a5109c131a222cd1e1bc4e012d533669902aa55816040516116b59190613bc1565b6001600160a01b0382166000908152601b602052604081208054839290611835908490613588565b90915550505050565b336001600160a01b037f000000000000000000000000000000000000000000000000000000000000000016146118865760405162461bcd60e51b8152600401610901906134fa565b61188f81611988565b50565b80600001516001600160a01b031663c45a01556040518163ffffffff1660e01b8152600401602060405180830381865afa9250505080156118f0575060408051601f3d908101601f191682019092526118ed9181019061354d565b60015b61192d5760405162461bcd60e51b815260206004820152600e60248201526d24b73b30b634b2103937baba32b960911b6044820152606401610901565b506126de816020015161ffff16111561188f5760405162461bcd60e51b815260206004820152601860248201527f5f736c697070616765466163746f7220746f6f206869676800000000000000006044820152606401610901565b6000546002546119a891600160c01b90046001600160401b031690613588565b43101580156119bc57506119ba6111cd565b155b1561188f5760006119cb611e0b565b90506119d56122b5565b6001546001600160581b03166000805b7f0000000000000000000000000000000000000000000000000000000000000000811015611b3257600060048260088110611a2257611a22613c01565b01546040516370a0823160e01b81523060048201526001600160a01b03909116915060009082906370a0823190602401602060405180830381865afa158015611a6f573d6000803e3d6000fd5b505050506040513d601f19601f82011682018060405250810190611a9391906134e1565b90507f00000000000000000000000000000000000000000000000000000000000000006001600160a01b0316826001600160a01b03161415611adc57611ad98682613536565b90505b84811115611b1d5760019350611af9600e6000601685858c612396565b9050611b1d600082847376bf0c28e604cc3fe9967c83b3c3f31c213cfe6430612638565b50508080611b2a90613c17565b9150506119e5565b508015611c6b576040516370a0823160e01b81523060048201527376bf0c28e604cc3fe9967c83b3c3f31c213cfe649060009082906370a0823190602401602060405180830381865afa158015611b8d573d6000803e3d6000fd5b505050506040513d601f19601f82011682018060405250810190611bb191906134e1565b9050611be76001600160a01b0383167f000000000000000000000000000000000000000000000000000000000000000083612b14565b604051631c57762b60e31b815260036004820152602481018290527f00000000000000000000000000000000000000000000000000000000000000006001600160a01b03169063e2bbb15890604401600060405180830381600087803b158015611c5057600080fd5b505af1158015611c64573d6000803e3d6000fd5b5050505050505b5050436002555050565b6000611c7f611e0b565b905080611c895750565b6000611c936107dc565b9050611c9e82612c29565b6000611ca86107dc565b60005490915061271090600160a01b900461ffff16611cc78585613588565b611cd191906135a0565b611cdb91906135d5565b6001546001600160581b0316611cef611e0b565b611cf99084613588565b611d039190613588565b1015611d515760405162461bcd60e51b815260206004820152601b60248201527f48696768207661756c74206465706f73697420736c69707061676500000000006044820152606401610901565b505050565b600080806000198587098587029250828110838203039150508060001415611d905760008411611d8557600080fd5b508290049050611e04565b808411611d9c57600080fd5b600084868809851960019081018716968790049682860381900495909211909303600082900391909104909201919091029190911760038402600290811880860282030280860282030280860282030280860282030280860282030280860290910302029150505b9392505050565b6040516370a0823160e01b81523060048201526000907f00000000000000000000000000000000000000000000000000000000000000006001600160a01b0316906370a0823190602401610871565b604080517f00000000000000000000000000000000000000000000000000000000000000006001600160a01b0390811660248301527f00000000000000000000000000000000000000000000000000000000000000006044808401919091528351808403909101815260649092018352602080830180516001600160e01b0316630644076f60e41b1790528351808501909452601d84527f656d657267656e63797661756c747769746864726177206661696c65640000009084015261188f927f00000000000000000000000000000000000000000000000000000000000000009091169190612d5e565b6040516001600160a01b038316602482015260448101829052611d5190849063a9059cbb60e01b906064015b60408051601f198184030181529190526020810180516001600160e01b03166001600160e01b031990931692909217909152612e32565b604080517f00000000000000000000000000000000000000000000000000000000000000006001600160a01b0390811660248301527f0000000000000000000000000000000000000000000000000000000000000000604483015260648083018590528351808403909101815260849092018352602080830180516001600160e01b03166315d54f0360e21b179052835180850190945260148452731d985d5b1d1dda5d1a191c985dc819985a5b195960621b9084015261208e927f00000000000000000000000000000000000000000000000000000000000000009091169190612d5e565b5050565b600061209f848484611d56565b9050600082806120b1576120b16135bf565b8486091115611e045760001981106120c857600080fd5b806116c981613c17565b604051636eb1769f60e11b81523060048201526001600160a01b038381166024830152600091839186169063dd62ed3e90604401602060405180830381865afa158015612123573d6000803e3d6000fd5b505050506040513d601f19601f8201168201806040525081019061214791906134e1565b6121519190613588565b6040516001600160a01b03851660248201526044810182905290915061218490859063095ea7b360e01b90606401611f71565b50505050565b6040810151602001516001600160a01b03166121e15760405162461bcd60e51b8152602060048201526016602482015275496e76616c696420726577617264206164647265737360501b6044820152606401610901565b6060810151602001516001600160a01b031661223f5760405162461bcd60e51b815260206004820152601760248201527f496e76616c6964206275796261636b20616464726573730000000000000000006044820152606401610901565b6127108160600151604001518260400151604001518360200151604001516122679190613c32565b6122719190613c32565b61ffff16111561188f5760405162461bcd60e51b815260206004820152600f60248201526e4d617820666565206f66203130302560881b6044820152606401610901565b604080517f00000000000000000000000000000000000000000000000000000000000000006001600160a01b0390811660248301527f00000000000000000000000000000000000000000000000000000000000000006044808401919091528351808403909101815260649092018352602080830180516001600160e01b0316635359344d60e11b179052835180850190945260138452721d985d5b1d1a185c9d995cdd0819985a5b1959606a1b9084015261188f927f00000000000000000000000000000000000000000000000000000000000000009091169190612d5e565b600686015460078701546040516370a0823160e01b81526001600160a01b039182166004820152600092839216906370a0823190602401602060405180830381865afa1580156123ea573d6000803e3d6000fd5b505050506040513d601f19601f8201168201806040525081019061240e91906134e1565b60038901548593509091506000906127109061243590600160a01b900461ffff16856135a0565b61243f91906135d5565b90508015612472576002890154612465908990839089906001600160a01b031688612638565b61246f8184613536565b92505b60058901546127109061249090600160a01b900461ffff16876135a0565b61249a91906135d5565b905080156125055760068901546124f8908990839089906001600160a01b038083169116146124d65760048d01546001600160a01b03166124e5565b60068d01546001600160a01b03165b60058e01546001600160a01b0316612638565b6125028184613536565b92505b60078901546127109061252390600160a01b900461ffff16876135a0565b61252d91906135d5565b9050801561256857600689015460078a015461255b918a9184918a916001600160a01b039182169116612638565b6125658184613536565b92505b86546001600160801b038082168501166fffffffffffffffffffffffffffffffff19909116178755600689015460078a01546040516370a0823160e01b81526001600160a01b039182166004820152849291909116906370a0823190602401602060405180830381865afa1580156125e4573d6000803e3d6000fd5b505050506040513d601f19601f8201168201806040525081019061260891906134e1565b88546001600160801b0380821693909203600160801b918290048316019091160217909655509695505050505050565b816001600160a01b0316836001600160a01b0316141561267b576001600160a01b0381163014612676576126766001600160a01b0384168286611f45565b612b0d565b60018501548554604051620fc5df60ea1b81526001600160a01b03918216600482015285821660248201528482166044820152600092600160601b900490911690633f177c00906064016000604051808303816000875af11580156126e4573d6000803e3d6000fd5b505050506040513d6000823e601f3d908101601f1916820160405261270c9190810190613c58565b905060005b81518110156127655760006001600160a01b031682828151811061273757612737613c01565b60200260200101516001600160a01b0316141561275357612765565b8061275d81613c17565b915050612711565b6000816001600160401b0381111561277f5761277f613276565b6040519080825280602002602001820160405280156127a8578160200160208202803683370190505b50905060005b8281101561280c578381815181106127c8576127c8613c01565b60200260200101518282815181106127e2576127e2613c01565b6001600160a01b03909216602092830291909101909101528061280481613c17565b9150506127ae565b50875460405163d06ca61f60e01b81526000916001600160a01b03169063d06ca61f9061283f908b908690600401613d2a565b600060405180830381865afa15801561285c573d6000803e3d6000fd5b505050506040513d6000823e601f3d908101601f191682016040526128849190810190613d43565b8954815191925060009161271091600160a01b900461ffff169084906128ac90600190613536565b815181106128bc576128bc613c01565b60200260200101516128ce91906135a0565b6128d891906135d5565b8a549091506128f4906001600160a01b038a811691168b6120d2565b8954612908906001600160a01b0316612f04565b6001600160a01b0316876001600160a01b031614158061293157506001600160a01b0386163b15155b15612a3c5760018a0154600160581b900460ff16156129b8578954604051635c11d79560e01b81526001600160a01b0390911690635c11d79590612981908c90859088908c904290600401613dc8565b600060405180830381600087803b15801561299b57600080fd5b505af11580156129af573d6000803e3d6000fd5b50505050612b07565b89546040516338ed173960e01b81526001600160a01b03909116906338ed1739906129ef908c90859088908c904290600401613dc8565b6000604051808303816000875af1158015612a0e573d6000803e3d6000fd5b505050506040513d6000823e601f3d908101601f19168201604052612a369190810190613d43565b50612b07565b60018a0154600160581b900460ff1615612a8757895460405163791ac94760e01b81526001600160a01b039091169063791ac94790612981908c90859088908c904290600401613dc8565b89546040516318cbafe560e01b81526001600160a01b03909116906318cbafe590612abe908c90859088908c904290600401613dc8565b6000604051808303816000875af1158015612add573d6000803e3d6000fd5b505050506040513d6000823e601f3d908101601f19168201604052612b059190810190613d43565b505b50505050505b5050505050565b801580612b8e5750604051636eb1769f60e11b81523060048201526001600160a01b03838116602483015284169063dd62ed3e90604401602060405180830381865afa158015612b68573d6000803e3d6000fd5b505050506040513d601f19601f82011682018060405250810190612b8c91906134e1565b155b612bf95760405162461bcd60e51b815260206004820152603660248201527f5361666545524332303a20617070726f76652066726f6d206e6f6e2d7a65726f60448201527520746f206e6f6e2d7a65726f20616c6c6f77616e636560501b6064820152608401610901565b6040516001600160a01b038316602482015260448101829052611d5190849063095ea7b360e01b90606401611f71565b612c7d6001600160a01b037f0000000000000000000000000000000000000000000000000000000000000000167f0000000000000000000000000000000000000000000000000000000000000000836120d2565b604080517f00000000000000000000000000000000000000000000000000000000000000006001600160a01b0390811660248301527f0000000000000000000000000000000000000000000000000000000000000000604483015260648083018590528351808403909101815260849092018352602080830180516001600160e01b03166371f08d6160e01b179052835180850190945260138452721d985d5b1d19195c1bdcda5d0819985a5b1959606a1b9084015261208e927f000000000000000000000000000000000000000000000000000000000000000090911691905b6060833b612dbd5760405162461bcd60e51b815260206004820152602660248201527f416464726573733a2064656c65676174652063616c6c20746f206e6f6e2d636f6044820152651b9d1c9858dd60d21b6064820152608401610901565b600080856001600160a01b031685604051612dd89190613e30565b600060405180830381855af49150503d8060008114612e13576040519150601f19603f3d011682016040523d82523d6000602084013e612e18565b606091505b5091509150612e28828286612f84565b9695505050505050565b6000612e87826040518060400160405280602081526020017f5361666545524332303a206c6f772d6c6576656c2063616c6c206661696c6564815250856001600160a01b0316612fbd9092919063ffffffff16565b805190915015611d515780806020019051810190612ea59190613605565b611d515760405162461bcd60e51b815260206004820152602a60248201527f5361666545524332303a204552433230206f7065726174696f6e20646964206e6044820152691bdd081cdd58d8d9595960b21b6064820152608401610901565b6000816001600160a01b031663ad5c46486040518163ffffffff1660e01b8152600401602060405180830381865afa925050508015612f60575060408051601f3d908101601f19168201909252612f5d9181019061354d565b60015b6107d65750730d500b1d8e8ef31e21c99d1db9a6444d3adf1270919050565b919050565b60608315612f93575081611e04565b825115612fa35782518084602001fd5b8160405162461bcd60e51b81526004016109019190613e4c565b6060610a71848460008585843b6130165760405162461bcd60e51b815260206004820152601d60248201527f416464726573733a2063616c6c20746f206e6f6e2d636f6e74726163740000006044820152606401610901565b600080866001600160a01b031685876040516130329190613e30565b60006040518083038185875af1925050503d806000811461306f576040519150601f19603f3d011682016040523d82523d6000602084013e613074565b606091505b5091509150613084828286612f84565b979650505050505050565b6000602082840312156130a157600080fd5b81356001600160e01b031981168114611e0457600080fd5b6001600160a01b038116811461188f57600080fd5b6000602082840312156130e057600080fd5b8135611e04816130b9565b6000806000806080858703121561310157600080fd5b843561310c816130b9565b9350602085013561311c816130b9565b93969395505050506040820135916060013590565b60006020828403121561314357600080fd5b5035919050565b60008060006060848603121561315f57600080fd5b833561316a816130b9565b95602085013595506040909401359392505050565b6000806040838503121561319257600080fd5b823561319d816130b9565b946020939093013593505050565b80516001600160a01b0390811683526020808301519091169083015260409081015161ffff16910152565b61018081016131e582876131ab565b6131f260608301866131ab565b6131ff60c08301856131ab565b6116c96101208301846131ab565b600080600080600060a0868803121561322557600080fd5b8535613230816130b9565b94506020860135613240816130b9565b94979496505050506040830135926060810135926080909101359150565b600060e0828403121561327057600080fd5b50919050565b634e487b7160e01b600052604160045260246000fd5b604051601f8201601f191681016001600160401b03811182821017156132b4576132b4613276565b604052919050565b60006001600160401b038211156132d5576132d5613276565b5060051b60200190565b600082601f8301126132f057600080fd5b81356020613305613300836132bc565b61328c565b82815260059290921b8401810191818101908684111561332457600080fd5b8286015b8481101561333f5780358352918301918301613328565b509695505050505050565b600082601f83011261335b57600080fd5b81356001600160401b0381111561337457613374613276565b613387601f8201601f191660200161328c565b81815284602083860101111561339c57600080fd5b816020850160208301376000918101602001919091529392505050565b600080600080600060a086880312156133d157600080fd5b85356133dc816130b9565b945060208601356133ec816130b9565b935060408601356001600160401b038082111561340857600080fd5b61341489838a016132df565b9450606088013591508082111561342a57600080fd5b61343689838a016132df565b9350608088013591508082111561344c57600080fd5b506134598882890161334a565b9150509295509295909350565b6000610180828403121561327057600080fd5b600080600080600060a0868803121561349157600080fd5b853561349c816130b9565b945060208601356134ac816130b9565b9350604086013592506060860135915060808601356001600160401b038111156134d557600080fd5b6134598882890161334a565b6000602082840312156134f357600080fd5b5051919050565b6020808252600c908201526b10bb30bab63a3432b0b632b960a11b604082015260600190565b634e487b7160e01b600052601160045260246000fd5b60008282101561354857613548613520565b500390565b60006020828403121561355f57600080fd5b8151611e04816130b9565b60208082526004908201526310b3b7bb60e11b604082015260600190565b6000821982111561359b5761359b613520565b500190565b60008160001904831182151516156135ba576135ba613520565b500290565b634e487b7160e01b600052601260045260246000fd5b6000826135f257634e487b7160e01b600052601260045260246000fd5b500490565b801515811461188f57600080fd5b60006020828403121561361757600080fd5b8151611e04816135f7565b61ffff8116811461188f57600080fd5b6001600160401b038116811461188f57600080fd5b6001600160581b038116811461188f57600080fd5b8035612f7f81613647565b8035612f7f816135f7565b8035612f7f816130b9565b600060e0828403121561368f57600080fd5b60405160e081018181106001600160401b03821117156136b1576136b1613276565b60405282356136bf816130b9565b815260208301356136cf81613622565b602082015260408301356136e281613622565b604082015260608301356136f581613632565b60608201526137066080840161365c565b608082015261371760a08401613667565b60a082015261372860c08401613672565b60c08201529392505050565b80546001600160a01b0319166001600160a01b0392909216919091179055565b805461ffff60a01b191660a09290921b61ffff60a01b16919091179055565b600081356107d681613647565b600081356107d6816135f7565b600081356107d6816130b9565b81356137a5816130b9565b6137af8183613734565b5060208201356137be81613622565b6137c88183613754565b5060408201356137d781613622565b815461ffff60b01b19811660b09290921b61ffff60b01b169182178355606084013561380281613632565b6001600160b01b039190911690911760c09190911b6001600160c01b0319161781556001810161385861383760808501613773565b82546affffffffffffffffffffff19166001600160581b0391909116178255565b61388561386760a08501613780565b82805460ff60581b191691151560581b60ff60581b16919091179055565b611d5161389460c0850161378d565b82546bffffffffffffffffffffffff1660609190911b6bffffffffffffffffffffffff1916178255565b60e0810182356138cd816130b9565b6001600160a01b0316825260208301356138e681613622565b61ffff908116602084015260408401359061390082613622565b166040830152606083013561391481613632565b6001600160401b03166060830152608083013561393081613647565b6001600160581b0316608083015261394a60a08401613667565b151560a083015261395d60c08401613672565b6001600160a01b03811660c08401525b5092915050565b60006060828403121561398657600080fd5b604051606081018181106001600160401b03821117156139a8576139a8613276565b60405290508082356139b9816130b9565b815260208301356139c9816130b9565b602082015260408301356139dc81613622565b6040919091015292915050565b600061018082840312156139fc57600080fd5b604051608081018181106001600160401b0382111715613a1e57613a1e613276565b604052613a2b8484613974565b8152613a3a8460608501613974565b6020820152613a4c8460c08501613974565b6040820152613a5f846101208501613974565b60608201529392505050565b8135613a76816130b9565b613a808183613734565b50600181016020830135613a93816130b9565b613a9d8183613734565b506040830135613aac81613622565b6121848183613754565b8135613ac1816130b9565b613acb8183613734565b50600181016020830135613ade816130b9565b613ae88183613734565b506040830135613af781613622565b613b018183613754565b50506060820135613b11816130b9565b613b1e8160028401613734565b50600381016080830135613b31816130b9565b613b3b8183613734565b5060a0830135613b4a81613622565b613b548183613754565b5050613b6660c0830160048301613a6b565b61208e610120830160068301613a6b565b8035613b82816130b9565b6001600160a01b039081168352602082013590613b9e826130b9565b1660208301526040810135613bb281613622565b61ffff81166040840152505050565b6101808101613bd08284613b77565b613be06060830160608501613b77565b613bf060c0830160c08501613b77565b61012061396d818401828601613b77565b634e487b7160e01b600052603260045260246000fd5b6000600019821415613c2b57613c2b613520565b5060010190565b600061ffff808316818516808303821115613c4f57613c4f613520565b01949350505050565b60006020808385031215613c6b57600080fd5b82516001600160401b03811115613c8157600080fd5b8301601f81018513613c9257600080fd5b8051613ca0613300826132bc565b81815260059190911b82018301908381019087831115613cbf57600080fd5b928401925b82841015613084578351613cd7816130b9565b82529284019290840190613cc4565b600081518084526020808501945080840160005b83811015613d1f5781516001600160a01b031687529582019590820190600101613cfa565b509495945050505050565b828152604060208201526000610a716040830184613ce6565b60006020808385031215613d5657600080fd5b82516001600160401b03811115613d6c57600080fd5b8301601f81018513613d7d57600080fd5b8051613d8b613300826132bc565b81815260059190911b82018301908381019087831115613daa57600080fd5b928401925b8284101561308457835182529284019290840190613daf565b85815284602082015260a060408201526000613de760a0830186613ce6565b6001600160a01b0394909416606083015250608001529392505050565b60005b83811015613e1f578181015183820152602001613e07565b838111156121845750506000910152565b60008251613e42818460208701613e04565b9190910192915050565b6020815260008251806020840152613e6b816040850160208701613e04565b601f01601f1916919091016040019291505056fea2646970667358221220773bb2bbe30476065696faaf45a894ee0602a48d99cc69a34934340966ef83fb64736f6c634300080a0033",
    "sourcePath": "/Users/richardjamieson/Documents/GitHub/polycrystal-vaults/contracts/StrategyVHMaximizer.sol",
    "compiler": {
        "name": "solc",
        "version": "0.8.10+commit.fc410830"
    },
    "functionHashes": {
        "CheckIsMaximizer()": "c621fbc3",
        "UpdatePoolAndRewarddebtOnDeposit(address,uint256)": "5ad88a70",
        "UpdatePoolAndWithdrawCrystlOnWithdrawal(address,uint256,uint256)": "52a49ba2",
        "accRewardTokensPerShare()": "0e442709",
        "burnedAmount()": "50e15fdd",
        "buyBackRate()": "178a8d07",
        "crystlCompounder()": "dfdce164",
        "deposit(address,address,uint256,uint256)": "20e8c565",
        "earn(address)": "fdb5fefc",
        "earned(uint256)": "4d6ed8c4",
        "getRewardDebt(address)": "1d47c6d9",
        "increaseRewardDebt(address,uint256)": "f75c1d9e",
        "isMaximizer()": "96ae71f0",
        "lastEarnBlock()": "0fa4e01e",
        "lpToken(uint256)": "78ed5d1f",
        "masterchef()": "fb1db278",
        "onERC1155BatchReceived(address,address,uint256[],uint256[],bytes)": "bc197c81",
        "onERC1155Received(address,address,uint256,uint256,bytes)": "f23a6e61",
        "panic()": "4700d305",
        "panicLockExpiry()": "9845db2f",
        "pause()": "8456cb59",
        "paused()": "5c975abb",
        "pid()": "f1068454",
        "rewardDebt(address)": "5873eb9b",
        "setFees(((address,address,uint16),(address,address,uint16),(address,address,uint16),(address,address,uint16)))": "c0c5356a",
        "setSettings((address,uint16,uint16,uint64,uint88,bool,address))": "b9bafd93",
        "setStakingPoolAddress(address)": "203d81c1",
        "settings()": "e06174e4",
        "sharesTotal()": "44a3955e",
        "stakingPoolAddress()": "25b15a0c",
        "supportsInterface(bytes4)": "01ffc9a7",
        "tactic()": "1c2b645b",
        "tolerance()": "dce52dfa",
        "unpanic()": "65a5e30b",
        "unpause()": "3f4ba83a",
        "vaultFees()": "72188e3f",
        "vaultHealer()": "7e2c5c19",
        "vaultSharesTotal()": "04c9d490",
        "vaultStats()": "6ff4ab8a",
        "wantLockedTotal()": "42da4eb3",
        "wantToken()": "d23e0480",
        "withdraw(address,address,uint256,uint256,uint256)": "76234759"
    },
    "gasEstimates": {
        "creation": {
            "codeDepositCost": "3210600",
            "executionCost": "infinite",
            "totalCost": "infinite"
        },
        "external": {
            "CheckIsMaximizer()": "2377",
            "UpdatePoolAndRewarddebtOnDeposit(address,uint256)": "infinite",
            "UpdatePoolAndWithdrawCrystlOnWithdrawal(address,uint256,uint256)": "infinite",
            "accRewardTokensPerShare()": "2386",
            "burnedAmount()": "2372",
            "buyBackRate()": "2450",
            "crystlCompounder()": "2470",
            "deposit(address,address,uint256,uint256)": "infinite",
            "earn(address)": "infinite",
            "earned(uint256)": "2591",
            "getRewardDebt(address)": "2599",
            "increaseRewardDebt(address,uint256)": "24816",
            "isMaximizer()": "2383",
            "lastEarnBlock()": "2408",
            "lpToken(uint256)": "2569",
            "masterchef()": "infinite",
            "onERC1155BatchReceived(address,address,uint256[],uint256[],bytes)": "infinite",
            "onERC1155Received(address,address,uint256,uint256,bytes)": "infinite",
            "panic()": "infinite",
            "panicLockExpiry()": "2384",
            "pause()": "infinite",
            "paused()": "infinite",
            "pid()": "infinite",
            "rewardDebt(address)": "2602",
            "setFees(((address,address,uint16),(address,address,uint16),(address,address,uint16),(address,address,uint16)))": "infinite",
            "setSettings((address,uint16,uint16,uint64,uint88,bool,address))": "infinite",
            "setStakingPoolAddress(address)": "24643",
            "settings()": "4848",
            "sharesTotal()": "infinite",
            "stakingPoolAddress()": "2471",
            "supportsInterface(bytes4)": "473",
            "tactic()": "infinite",
            "tolerance()": "2426",
            "unpanic()": "infinite",
            "unpause()": "infinite",
            "vaultFees()": "infinite",
            "vaultHealer()": "infinite",
            "vaultSharesTotal()": "infinite",
            "vaultStats()": "2439",
            "wantLockedTotal()": "infinite",
            "wantToken()": "infinite",
            "withdraw(address,address,uint256,uint256,uint256)": "infinite"
        },
        "internal": {
            "_earn(address)": "infinite",
            "_emergencyVaultWithdraw()": "infinite",
            "_vaultDeposit(uint256)": "infinite",
            "_vaultHarvest()": "infinite",
            "_vaultWithdraw(uint256)": "infinite"
        }
    }
}